{
  "_format": "hh-sol-artifact-1",
  "contractName": "Lending",
  "sourceName": "contracts/Lending.sol",
  "abi": [
    {
      "inputs": [],
      "stateMutability": "nonpayable",
      "type": "constructor"
    },
    {
      "anonymous": false,
      "inputs": [
        {
          "indexed": false,
          "internalType": "address",
          "name": "loan",
          "type": "address"
        }
      ],
      "name": "LoanRequestAccepted",
      "type": "event"
    },
    {
      "inputs": [],
      "name": "borrower",
      "outputs": [
        {
          "internalType": "address payable",
          "name": "",
          "type": "address"
        }
      ],
      "stateMutability": "view",
      "type": "function"
    },
    {
      "inputs": [],
      "name": "collateralAmount",
      "outputs": [
        {
          "internalType": "uint256",
          "name": "",
          "type": "uint256"
        }
      ],
      "stateMutability": "view",
      "type": "function"
    },
    {
      "inputs": [],
      "name": "collateralToken",
      "outputs": [
        {
          "internalType": "contract IERC20",
          "name": "",
          "type": "address"
        }
      ],
      "stateMutability": "view",
      "type": "function"
    },
    {
      "inputs": [],
      "name": "getLatestPrice",
      "outputs": [
        {
          "internalType": "int256",
          "name": "",
          "type": "int256"
        }
      ],
      "stateMutability": "view",
      "type": "function"
    },
    {
      "inputs": [],
      "name": "lend",
      "outputs": [],
      "stateMutability": "payable",
      "type": "function"
    },
    {
      "inputs": [],
      "name": "loan",
      "outputs": [
        {
          "internalType": "contract Loan",
          "name": "",
          "type": "address"
        }
      ],
      "stateMutability": "view",
      "type": "function"
    },
    {
      "inputs": [],
      "name": "loanAmount",
      "outputs": [
        {
          "internalType": "uint256",
          "name": "",
          "type": "uint256"
        }
      ],
      "stateMutability": "view",
      "type": "function"
    },
    {
      "inputs": [],
      "name": "loanDuration",
      "outputs": [
        {
          "internalType": "uint256",
          "name": "",
          "type": "uint256"
        }
      ],
      "stateMutability": "view",
      "type": "function"
    },
    {
      "inputs": [],
      "name": "loanToken",
      "outputs": [
        {
          "internalType": "contract IERC20",
          "name": "",
          "type": "address"
        }
      ],
      "stateMutability": "view",
      "type": "function"
    },
    {
      "inputs": [
        {
          "internalType": "contract IERC20",
          "name": "_collateralToken",
          "type": "address"
        },
        {
          "internalType": "uint256",
          "name": "_collateralAmount",
          "type": "uint256"
        },
        {
          "internalType": "contract IERC20",
          "name": "_loanToken",
          "type": "address"
        },
        {
          "internalType": "uint256",
          "name": "_loanAmount",
          "type": "uint256"
        },
        {
          "internalType": "uint256",
          "name": "_payoffAmount",
          "type": "uint256"
        },
        {
          "internalType": "uint256",
          "name": "_loanDuration",
          "type": "uint256"
        }
      ],
      "name": "makeLoanRequest",
      "outputs": [],
      "stateMutability": "payable",
      "type": "function"
    },
    {
      "inputs": [],
      "name": "payoffAmount",
      "outputs": [
        {
          "internalType": "uint256",
          "name": "",
          "type": "uint256"
        }
      ],
      "stateMutability": "view",
      "type": "function"
    },
    {
      "inputs": [],
      "name": "storeLatestPrice",
      "outputs": [],
      "stateMutability": "nonpayable",
      "type": "function"
    },
    {
      "inputs": [],
      "name": "storedPrice",
      "outputs": [
        {
          "internalType": "int256",
          "name": "",
          "type": "int256"
        }
      ],
      "stateMutability": "view",
      "type": "function"
    }
  ],
  "bytecode": "0x608060405234801561001057600080fd5b50730a77230d17318075983913bc2145db16c7366156600860006101000a81548173ffffffffffffffffffffffffffffffffffffffff021916908373ffffffffffffffffffffffffffffffffffffffff160217905550611ad5806100756000396000f3fe608060405260043610620000d45760003560e01c80639d585f7f116200008b578063b6d4fbc91162000061578063b6d4fbc9146200024f578063be1abba5146200026f578063d285b7b4146200029f578063f5521bf114620002cf57620000d4565b80639d585f7f14620001bf5780639ed3012814620001ef578063b2016bd4146200021f57620000d4565b806306d3781714620000d957806353d10acb14620001095780637df1f1b914620001235780638e15f473146200015357806392d09ceb146200018357806397dffc6114620001b3575b600080fd5b348015620000e657600080fd5b50620000f1620002ff565b6040516200010091906200098e565b60405180910390f35b3480156200011657600080fd5b506200012162000325565b005b3480156200013057600080fd5b506200013b62000337565b6040516200014a9190620009d0565b60405180910390f35b3480156200016057600080fd5b506200016b6200035b565b6040516200017a919062000a08565b60405180910390f35b3480156200019057600080fd5b506200019b620003ff565b604051620001aa919062000a40565b60405180910390f35b620001bd62000405565b005b348015620001cc57600080fd5b50620001d7620007ab565b604051620001e6919062000a40565b60405180910390f35b348015620001fc57600080fd5b5062000207620007b1565b60405162000216919062000a08565b60405180910390f35b3480156200022c57600080fd5b5062000237620007b7565b6040516200024691906200098e565b60405180910390f35b6200026d600480360381019062000267919062000aec565b620007dd565b005b3480156200027c57600080fd5b5062000287620008c3565b60405162000296919062000a40565b60405180910390f35b348015620002ac57600080fd5b50620002b7620008c9565b604051620002c6919062000bad565b60405180910390f35b348015620002dc57600080fd5b50620002e7620008ef565b604051620002f6919062000a40565b60405180910390f35b600360009054906101000a900473ffffffffffffffffffffffffffffffffffffffff1681565b6200032f6200035b565b600981905550565b60008054906101000a900473ffffffffffffffffffffffffffffffffffffffff1681565b600080600860009054906101000a900473ffffffffffffffffffffffffffffffffffffffff1673ffffffffffffffffffffffffffffffffffffffff1663feaf968c6040518163ffffffff1660e01b815260040160a060405180830381865afa158015620003cc573d6000803e3d6000fd5b505050506040513d601f19601f82011682018060405250810190620003f2919062000c59565b5050509150508091505090565b60025481565b600073ffffffffffffffffffffffffffffffffffffffff1660008054906101000a900473ffffffffffffffffffffffffffffffffffffffff1673ffffffffffffffffffffffffffffffffffffffff160362000497576040517f08c379a00000000000000000000000000000000000000000000000000000000081526004016200048e9062000d42565b60405180910390fd5b3360008054906101000a900473ffffffffffffffffffffffffffffffffffffffff16600160009054906101000a900473ffffffffffffffffffffffffffffffffffffffff16600254600360009054906101000a900473ffffffffffffffffffffffffffffffffffffffff166005546006546040516200051690620008f5565b62000528979695949392919062000d64565b604051809103906000f08015801562000545573d6000803e3d6000fd5b50600760006101000a81548173ffffffffffffffffffffffffffffffffffffffff021916908373ffffffffffffffffffffffffffffffffffffffff160217905550600160009054906101000a900473ffffffffffffffffffffffffffffffffffffffff1673ffffffffffffffffffffffffffffffffffffffff166323b872dd60008054906101000a900473ffffffffffffffffffffffffffffffffffffffff16600760009054906101000a900473ffffffffffffffffffffffffffffffffffffffff166002546040518463ffffffff1660e01b81526004016200062b9392919062000e17565b6020604051808303816000875af11580156200064b573d6000803e3d6000fd5b505050506040513d601f19601f8201168201806040525081019062000671919062000e91565b6200067b57600080fd5b600360009054906101000a900473ffffffffffffffffffffffffffffffffffffffff1673ffffffffffffffffffffffffffffffffffffffff166323b872dd3360008054906101000a900473ffffffffffffffffffffffffffffffffffffffff166004546040518463ffffffff1660e01b8152600401620006fe9392919062000ec3565b6020604051808303816000875af11580156200071e573d6000803e3d6000fd5b505050506040513d601f19601f8201168201806040525081019062000744919062000e91565b6200074e57600080fd5b7f9f677f64e89085ceeb9764ab56960049bf27d6c283ce7a1fd757cac5648bb919600760009054906101000a900473ffffffffffffffffffffffffffffffffffffffff16604051620007a1919062000f00565b60405180910390a1565b60045481565b60095481565b600160009054906101000a900473ffffffffffffffffffffffffffffffffffffffff1681565b336000806101000a81548173ffffffffffffffffffffffffffffffffffffffff021916908373ffffffffffffffffffffffffffffffffffffffff16021790555085600160006101000a81548173ffffffffffffffffffffffffffffffffffffffff021916908373ffffffffffffffffffffffffffffffffffffffff1602179055508460028190555083600360006101000a81548173ffffffffffffffffffffffffffffffffffffffff021916908373ffffffffffffffffffffffffffffffffffffffff160217905550826004819055508160058190555080600681905550505050505050565b60055481565b600760009054906101000a900473ffffffffffffffffffffffffffffffffffffffff1681565b60065481565b610b828062000f1e83390190565b600073ffffffffffffffffffffffffffffffffffffffff82169050919050565b6000819050919050565b60006200094e62000948620009428462000903565b62000923565b62000903565b9050919050565b600062000962826200092d565b9050919050565b6000620009768262000955565b9050919050565b620009888162000969565b82525050565b6000602082019050620009a560008301846200097d565b92915050565b6000620009b88262000903565b9050919050565b620009ca81620009ab565b82525050565b6000602082019050620009e76000830184620009bf565b92915050565b6000819050919050565b62000a0281620009ed565b82525050565b600060208201905062000a1f6000830184620009f7565b92915050565b6000819050919050565b62000a3a8162000a25565b82525050565b600060208201905062000a57600083018462000a2f565b92915050565b600080fd5b600062000a6f8262000903565b9050919050565b600062000a838262000a62565b9050919050565b62000a958162000a76565b811462000aa157600080fd5b50565b60008135905062000ab58162000a8a565b92915050565b62000ac68162000a25565b811462000ad257600080fd5b50565b60008135905062000ae68162000abb565b92915050565b60008060008060008060c0878903121562000b0c5762000b0b62000a5d565b5b600062000b1c89828a0162000aa4565b965050602062000b2f89828a0162000ad5565b955050604062000b4289828a0162000aa4565b945050606062000b5589828a0162000ad5565b935050608062000b6889828a0162000ad5565b92505060a062000b7b89828a0162000ad5565b9150509295509295509295565b600062000b958262000955565b9050919050565b62000ba78162000b88565b82525050565b600060208201905062000bc4600083018462000b9c565b92915050565b600069ffffffffffffffffffff82169050919050565b62000beb8162000bca565b811462000bf757600080fd5b50565b60008151905062000c0b8162000be0565b92915050565b62000c1c81620009ed565b811462000c2857600080fd5b50565b60008151905062000c3c8162000c11565b92915050565b60008151905062000c538162000abb565b92915050565b600080600080600060a0868803121562000c785762000c7762000a5d565b5b600062000c888882890162000bfa565b955050602062000c9b8882890162000c2b565b945050604062000cae8882890162000c42565b935050606062000cc18882890162000c42565b925050608062000cd48882890162000bfa565b9150509295509295909350565b600082825260208201905092915050565b7f4d697373696e6720626f72726f77657200000000000000000000000000000000600082015250565b600062000d2a60108362000ce1565b915062000d378262000cf2565b602082019050919050565b6000602082019050818103600083015262000d5d8162000d1b565b9050919050565b600060e08201905062000d7b600083018a620009bf565b62000d8a6020830189620009bf565b62000d9960408301886200097d565b62000da8606083018762000a2f565b62000db760808301866200097d565b62000dc660a083018562000a2f565b62000dd560c083018462000a2f565b98975050505050505050565b600062000dee8262000955565b9050919050565b62000e008162000de1565b82525050565b62000e118162000a62565b82525050565b600060608201905062000e2e600083018662000df5565b62000e3d602083018562000e06565b62000e4c604083018462000a2f565b949350505050565b60008115159050919050565b62000e6b8162000e54565b811462000e7757600080fd5b50565b60008151905062000e8b8162000e60565b92915050565b60006020828403121562000eaa5762000ea962000a5d565b5b600062000eba8482850162000e7a565b91505092915050565b600060608201905062000eda600083018662000e06565b62000ee9602083018562000df5565b62000ef8604083018462000a2f565b949350505050565b600060208201905062000f17600083018462000e06565b9291505056fe60806040523480156200001157600080fd5b5060405162000b8238038062000b82833981810160405281019062000037919062000267565b866000806101000a81548173ffffffffffffffffffffffffffffffffffffffff021916908373ffffffffffffffffffffffffffffffffffffffff16021790555085600160006101000a81548173ffffffffffffffffffffffffffffffffffffffff021916908373ffffffffffffffffffffffffffffffffffffffff16021790555084600260006101000a81548173ffffffffffffffffffffffffffffffffffffffff021916908373ffffffffffffffffffffffffffffffffffffffff1602179055508360038190555082600460006101000a81548173ffffffffffffffffffffffffffffffffffffffff021916908373ffffffffffffffffffffffffffffffffffffffff16021790555081600581905550804262000156919062000349565b6006819055505050505050505062000384565b600080fd5b600073ffffffffffffffffffffffffffffffffffffffff82169050919050565b60006200019b826200016e565b9050919050565b620001ad816200018e565b8114620001b957600080fd5b50565b600081519050620001cd81620001a2565b92915050565b6000620001e0826200016e565b9050919050565b6000620001f482620001d3565b9050919050565b6200020681620001e7565b81146200021257600080fd5b50565b6000815190506200022681620001fb565b92915050565b6000819050919050565b62000241816200022c565b81146200024d57600080fd5b50565b600081519050620002618162000236565b92915050565b600080600080600080600060e0888a03121562000289576200028862000169565b5b6000620002998a828b01620001bc565b9750506020620002ac8a828b01620001bc565b9650506040620002bf8a828b0162000215565b9550506060620002d28a828b0162000250565b9450506080620002e58a828b0162000215565b93505060a0620002f88a828b0162000250565b92505060c06200030b8a828b0162000250565b91505092959891949750929550565b7f4e487b7100000000000000000000000000000000000000000000000000000000600052601160045260246000fd5b600062000356826200022c565b915062000363836200022c565b92508282019050808211156200037e576200037d6200031a565b5b92915050565b6107ee80620003946000396000f3fe6080604052600436106100865760003560e01c80637df1f1b9116100595780637df1f1b91461010257806392d09ceb1461012d578063b2016bd414610158578063bcead63e14610183578063be1abba5146101ae57610086565b806306d378171461008b578063472eb03d146100b6578063786716fe146100c057806379cc90c4146100eb575b600080fd5b34801561009757600080fd5b506100a06101d9565b6040516100ad9190610642565b60405180910390f35b6100be6101ff565b005b3480156100cc57600080fd5b506100d561042f565b6040516100e29190610676565b60405180910390f35b3480156100f757600080fd5b50610100610435565b005b34801561010e57600080fd5b50610117610547565b60405161012491906106b2565b60405180910390f35b34801561013957600080fd5b5061014261056d565b60405161014f9190610676565b60405180910390f35b34801561016457600080fd5b5061016d610573565b60405161017a9190610642565b60405180910390f35b34801561018f57600080fd5b50610198610599565b6040516101a591906106b2565b60405180910390f35b3480156101ba57600080fd5b506101c36105bd565b6040516101d09190610676565b60405180910390f35b600460009054906101000a900473ffffffffffffffffffffffffffffffffffffffff1681565b60065442111561020e57600080fd5b600260009054906101000a900473ffffffffffffffffffffffffffffffffffffffff1673ffffffffffffffffffffffffffffffffffffffff1663a9059cbb600160009054906101000a900473ffffffffffffffffffffffffffffffffffffffff166003546040518363ffffffff1660e01b815260040161028f9291906106ee565b6020604051808303816000875af11580156102ae573d6000803e3d6000fd5b505050506040513d601f19601f820116820180604052508101906102d29190610754565b6102db57600080fd5b600460009054906101000a900473ffffffffffffffffffffffffffffffffffffffff1673ffffffffffffffffffffffffffffffffffffffff166323b872dd600160009054906101000a900473ffffffffffffffffffffffffffffffffffffffff1660008054906101000a900473ffffffffffffffffffffffffffffffffffffffff166005546040518463ffffffff1660e01b815260040161037e93929190610781565b6020604051808303816000875af115801561039d573d6000803e3d6000fd5b505050506040513d601f19601f820116820180604052508101906103c19190610754565b6103ca57600080fd5b7f8bb0a19f3c449c5f333f46e05a21a731e09b6f6bd145ee30e45d3e74e296990b60405160405180910390a160008054906101000a900473ffffffffffffffffffffffffffffffffffffffff1673ffffffffffffffffffffffffffffffffffffffff16ff5b60065481565b600654421161044357600080fd5b600260009054906101000a900473ffffffffffffffffffffffffffffffffffffffff1673ffffffffffffffffffffffffffffffffffffffff1663a9059cbb60008054906101000a900473ffffffffffffffffffffffffffffffffffffffff166003546040518363ffffffff1660e01b81526004016104c29291906106ee565b6020604051808303816000875af11580156104e1573d6000803e3d6000fd5b505050506040513d601f19601f820116820180604052508101906105059190610754565b61050e57600080fd5b60008054906101000a900473ffffffffffffffffffffffffffffffffffffffff1673ffffffffffffffffffffffffffffffffffffffff16ff5b600160009054906101000a900473ffffffffffffffffffffffffffffffffffffffff1681565b60035481565b600260009054906101000a900473ffffffffffffffffffffffffffffffffffffffff1681565b60008054906101000a900473ffffffffffffffffffffffffffffffffffffffff1681565b60055481565b600073ffffffffffffffffffffffffffffffffffffffff82169050919050565b6000819050919050565b60006106086106036105fe846105c3565b6105e3565b6105c3565b9050919050565b600061061a826105ed565b9050919050565b600061062c8261060f565b9050919050565b61063c81610621565b82525050565b60006020820190506106576000830184610633565b92915050565b6000819050919050565b6106708161065d565b82525050565b600060208201905061068b6000830184610667565b92915050565b600061069c826105c3565b9050919050565b6106ac81610691565b82525050565b60006020820190506106c760008301846106a3565b92915050565b60006106d88261060f565b9050919050565b6106e8816106cd565b82525050565b600060408201905061070360008301856106df565b6107106020830184610667565b9392505050565b600080fd5b60008115159050919050565b6107318161071c565b811461073c57600080fd5b50565b60008151905061074e81610728565b92915050565b60006020828403121561076a57610769610717565b5b60006107788482850161073f565b91505092915050565b600060608201905061079660008301866106df565b6107a360208301856106df565b6107b06040830184610667565b94935050505056fea26469706673582212203091e3bf87d86ea3ae6d3bafa4ea703076c958a2502fcadb071429df5f00e2e064736f6c63430008110033a26469706673582212201a922a5da68f1a0018664c92396c501f26880d143ea470f4f2ed63c7293db16764736f6c63430008110033",
  "linkReferences": {},
  "deployedLinkReferences": {}
}